:020000040800F2
:1000000068CB0120C1010008D17C0008D37C000826
:10001000D57C0008D77C0008D97C000800000000CF
:10002000000000000000000000000000DB7C000871
:10003000DD7C000800000000DF7C0008E37C000895
:10004000DB010008DB010008DB0100087373000816
:10005000DB010008DB010008DB010008DB01000810
:10006000DB010008DB010008DB010008DB01000800
:10007000DB010008DB010008DB010008DB010008F0
:10008000DB010008DB010008DB010008DB010008E0
:10009000DB010008DB010008DB010008DB010008D0
:1000A000DB010008DB010008DB010008DB010008C0
:1000B000DB010008DB010008DB010008DB010008B0
:1000C000DB010008DB010008DB010008DB010008A0
:1000D000DB0100080F7B0008217B0008397B00084A
:1000E000DB01000895730008DB010008DB01000854
:1000F000DB010008DB010008DB010008DB01000870
:10010000DB010008DB010008DB010008DB0100085F
:10011000517B0008697B0008DB010008DB01000857
:10012000DB010008DB010008DB010008DB0100083F
:10013000DB010008DB010008DB010008DB0100082F
:10014000DB010008DB010008DB010008DB0100081F
:10015000DB010008DB010008DB0100087D7B0008F3
:10016000DB010008DB010008DB010008DB010008FF
:10017000DB010008DB010008DB010008DB010008EF
:10018000DB010008DB010008957B0008AD7B00085F
:10019000DB010008DB010008DB010008DB010008CF
:1001A00061310008DB01000865310008DFF80CD080
:1001B00009F09CFA00480047E97B000868CB012061
:1001C0000648804706480047FEE7FEE7FEE7FEE7F1
:1001D000FEE7FEE7FEE7FEE7FEE7FEE7AB7D000891
:1001E000AD0100082849084328490860704730B528
:1001F0000F23C27801780125FAB1244A126801F16F
:10020000E02102F4E062C2F5E062C2F30722C2F12B
:100210000404D3404278A24084781C401443220155
:1002200081F80024007800F01F018D404009800013
:1002300000F1E020C0F8005130BD01F01F00854002
:100240004809800000F1E020C0F8805130BD104A1C
:10025000114001430D48001F016070470B4A121DF9
:100260000029116801D0014300E08143116070470B
:100270004FF0E0210428086903D020F00400086151
:10028000704740F00400FAE70000FA050CED00E0CA
:1002900080FFFF1FF948016841F001010160F74A42
:1002A0000021083211600268F54B1A400260031DFC
:1002B000F44A1A60F14BF44A84331A60F14A103A56
:1002C0001B1D1A60026822F480220260EB480C3089
:1002D0000160181D01607047E8490022891C0A70FE
:1002E0000870704702460020510901290CD00229EC
:1002F0000CD0E2497431096802F01F0201239340D7
:100300000B4200D001207047DC49F4E7DB49703133
:10031000F1E718B500204FF4A04400903120FFF71A
:10032000E1FF0099491C0091A14201D00028F5D0BD
:100330003120FFF7D7FF002800D0012018BDCF4A99
:10034000116821F0F80141EAC00010607047CF4900
:1003500008607047C949002270310A700A7001288C
:1003600002D0042801D1052008707047C8490860F0
:10037000704741EA82115A0810B5C64B029C03EB44
:1003800002421143014341EA0460BC49091D08606F
:1003900010BDBE4908667047800140EA0160B74958
:1003A00040EA0270843108607047B8498866704737
:1003B000800140EA0160B14940EA0270883108607A
:1003C0007047B24908677047B049C8647047AB4B83
:1003D00008331A68084322F0EC6210431860704733
:1003E000A64B08331A68084322F07842104318607D
:1003F0007047A24A0832116821F0030101431160DD
:1004000070479E480830006800F00C0070479B4A17
:100410000832116821F0F001014311607047974ADA
:100420000832116821F4E051014311607047934A8A
:100430000832116821F4604141EAC0001060704741
:1004400070B58E4B08331968934C11F00C0104D031
:100450006610042903D0082903D004601BE006605D
:1004600019E0864A121D1168C1F38055116801F028
:100470003F0115B1B6FBF1F101E0B4FBF1F11468F5
:100480001268C4F388146143C2F30142521C520043
:10049000B1FBF2F1016019680F2202EA11117F4AE3
:1004A000545C0168E14041601C68072505EA94241A
:1004B000145D21FA04F484601B6805EA5333D25CAE
:1004C000D140C16070BDC0F30121032908D16B4B3D
:1004D00008331968724A21F4F81102400A431A607D
:1004E000664970310A68C0F30B0002430A60704726
:1004F000674944390860704765494039086070476A
:100500006249C1F85C0170475C4A8C32116821F481
:100510004011014311607047584A8C32116821F430
:100520004001014311607047544A8C321168401EEB
:1005300021F01F01014311607047504A8C3211684D
:100540006FF0FF0321F4F85103EB00200843106023
:1005500070474A4A8C32116821F4403101431160DE
:1005600070475049C1F8E0017047444A30320029D1
:10057000116801D0014300E08143116070473F4A98
:1005800034320029116801D0014300E08143116039
:1005900070473A4A38320029116801D0014300E01F
:1005A000814311607047354A40320029116801D0FB
:1005B000014300E0814311607047304A4432002912
:1005C000116801D0014300E08143116070472B4A5C
:1005D00010320029116801D0014300E0814311600D
:1005E0007047264A14320029116801D0014300E007
:1005F000814311607047214A18320029116801D0E7
:10060000014300E08143116070471C4A20320029F9
:10061000116801D0014300E0814311607047174A1F
:1006200024320029116801D0014300E081431160A8
:100630007047124A50320029116801D0014300E08E
:100640008143116070470D4A54320029116801D06E
:10065000014300E0814311607047084A5832002985
:10066000116801D0014300E0814311607047034AE3
:1006700060320029116817D0014316E000380240AB
:10068000FFFFF6EA1030002400300020000047424F
:10069000800E47420000FFFF0024F400000000200D
:1006A000FFFCFF0F00104742814311607047194A59
:1006B0000029116801D0014300E0814311607047B7
:1006C00014490C310128086803D020F008000860A4
:1006D000704740F00800FAE70E4A573A00291178AF
:1006E00001D0014300E08143117070470948103088
:1006F000016841F08071016070470146054A0020A1
:10070000583A12680A4200D0012070470149563910
:10071000087070476438024010B50121CC052046AE
:10072000FFF755FF2046BDE810400021FFF74FBFFF
:1007300030B5A34B00241968A24A1140196019680A
:10074000026811431960596B21F007015963596B15
:10075000426811435963416841B301292DD00229F0
:1007600030D00329C16832D00A0101694469090205
:1007700024038568214315430D43996B0D439D6305
:100780008169D963196C6FF30D011964196CC26921
:1007900011431964818C5A6C02F040425A645A6CBD
:1007A000006A024342EA01425A6430BDC168047DD6
:1007B0000A02018A09042406DBE7C1680A02018AE9
:1007C0000904D6E7C1684A010169C902D1E74A01B3
:1007D000016944698902E403CBE7002101604160BB
:1007E000C1608160016141618161C16101624162F9
:1007F00070477348016841F001010160704770481B
:10080000016841F00401016070476D4900280868E3
:1008100002D040F0020001E020F0020008607047C2
:1008200070B567490268CA600A696FF30D020A6110
:100830000A6943681A430A61CA69634B1A40CA616C
:10084000848AD0E902622504036946EA0216047E1E
:1008500045EA03231E43CA6946EA04661643CE618D
:100860000A6A02F07F420A62026A838C0C6A1202F0
:10087000C56942EA03422C4314430C62806AC86291
:1008800070BD0021016041608160C1600161416112
:100890008161C161016241628162704770B54849FE
:1008A00002684A618A696FF30D028A618A69436846
:1008B0001A438A614A6A444B1A404A62848AD0E9E0
:1008C00002622504036946EA0216047E45EA032310
:1008D0001E434A6A46EA046616434E628A6A02F07A
:1008E0007F428A62026A838C8C6A1202C56942EA7C
:1008F00003422C4314438C62806A086370BD00215C
:10090000016041608160C160016141618161C161DB
:10091000016241628162704729490028C86902D09A
:1009200040F0200001E020F02000C8617047244919
:100930000028486A02D040F0200001E020F02000AA
:10094000486270471E4A59B1D16C4FF60173994302
:10095000D164D16C000240F001000143D1647047C2
:10096000D06C20F00100D06470471549886470474E
:10097000134A0029116801D0014300E0814311604E
:1009800070470F4A0146002052680A4200D00120F9
:1009900070470B4988607047094B10B55C680021AF
:1009A00014EA102F00D001211A68024202D009B1C6
:1009B000012010BD002010BD0149000A8860704769
:1009C00000B00240FCE0FCFFC000FC003549002004
:1009D0000860091D0860091D0860091D086031498B
:1009E000314814310860704730B52E4A8379016868
:1009F00053B313688B431360111D0B680468A34342
:100A00000B60017911440B68046823430B60254B8C
:100A1000083319680468A14319601C1D2168056822
:100A2000A94321604179102905D011440A68006862
:100A300002430A6030BD19680268114319602168D9
:100A400000680143216030BD0079104402688A4388
:100A5000026030BD0021016001710C224271817180
:100A60007047104910310A6802430A607047014616
:100A70000C4A0020143212680A4200D0012070474C
:100A800008491431086070470146064A00201432B4
:100A900012680A4200D001207047024914310860F0
:100AA00070470000003C0140FFFF7F008100A1F182
:100AB000C04140B143F2D20008606FF0704048601E
:100AC000C1F8040170474FF0204243F2DB00106090
:100AD000F3E730B501688900A1F1C0410B68FE4A17
:100AE0001340D0E901242243D0E903452C4322439B
:100AF0004469224384692243C4692243046A22432D
:100B0000446A2243846A2243C46A2243046B224318
:100B1000446B22431A430A608168082907D101689F
:100B20008900A1F1C0410A6842F040020A60416BAD
:100B3000B1F5801F15D1016899B14FF020414A6885
:100B40000B6822F4700243F480130B600B6843F4CB
:100B500080730B60836BE14C1B8A04EB03531343DC
:100B60004B60816BD1E9002342EA03128B688C89C8
:100B70001B0243EA04431A430B8A42EA03520B7DE9
:100B8000896942EA03620A4301688900A1F1C04110
:100B90004A60816AB1F5804F08D000686FF07041FB
:100BA0008000A0F1C040C0F8041130BD0168890088
:100BB000A1F1C041D1F80421C06BC94B1A40D0E962
:100BC000003443EA041384688589240244EA054416
:100BD0008069234303431343C1F8043130BD00212E
:100BE0000222C0E900121022C0E902120161C162B2
:100BF000416112028161C0E907125200C0E9092176
:100C000001634163B7498163C16370478000A0F10C
:100C1000C0400029016802D041F0010101E0B24A60
:100C200011400160704710B5182340244FF0204157
:100C30004FF0FC32102805D041F8803F4C608A60AC
:100C4000CA6010BD0B664C668A66CA6610BD30B5B8
:100C500002684FF02041102A1BD0D1F88020A34B0E
:100C600002EA0302D0E9013443EA0403D0E9034570
:100C700044EA050443EA0403446943EA44238469DB
:100C800043EA443343EA020343F0080403D18A6E83
:100C900003E00A6EE3E7D1F88820C269D2E90035A3
:100CA00043EA05231589127B4FEA054545EA0262AE
:100CB00043EA020301D1CA6E01E0D1F88C20006A38
:100CC000D0E9002542EA05220589007B4FEA054567
:100CD00045EA006042EA000203D10C668B66CA66F0
:100CE00030BD41F8804F8B60CA6030BD10220021BA
:100CF000C0E90021C0E90221016141618161C2694D
:100D0000FC211160C2695160C2699160C269D16001
:100D1000026A1160026A5160026A9160006AC160F1
:100D200070474FF0204251B1102804D052F8800F84
:100D300040F004000AE0106E40F004000AE06A4946
:100D4000C91E102804D052F8800F08401060704768
:100D5000106E0840106670474FF0204251B11028C5
:100D600004D052F8800F40F040000AE0106E40F0CE
:100D700040000AE05C493F39102804D052F8800F47
:100D8000084010607047106E0840106670474FF0C2
:100D90002041102802D0D1F894007047486F704766
:100DA0004FF02040182140F8A01F002141604FF073
:100DB000FC318160C1600161704710B54FF0204186
:100DC00051F8A02F4A4B84681A4043685B0243EAFB
:100DD000443304681443234343F010020A608A68D2
:100DE000C268D2E9003443EA04231489127B240444
:100DF00044EA026213438B60CA680269D2E9003494
:100E000043EA04231489127B240444EA0262134354
:100E1000CB600A694069D0E9002342EA03220389D2
:100E2000007B1B0443EA006002430A6110BD0021FD
:100E3000016041608160C268FC211160C26851603C
:100E4000C2689160C268D160026911600269516034
:100E5000026991600269D160426911604269516022
:100E6000426991604069C16070474FF0204100289D
:100E700051F8A00F02D040F0040002E01A4AD21E3E
:100E80001040086070478000A0F1C0404FF43471FA
:100E9000C0F840116FF07041C0F848114FF0204188
:100EA0000020C1F85001C1F85401C1F85801704741
:100EB000F0B50668B100A1F1C041D1F84011CD0BE9
:100EC000D0E901121143D0E903231A4311434269C7
:100ED000ED03114382690DE08000E7FF0000F0FFA1
:100EE0000000F0CF3C3E0108FEFF0F008101F0FF43
:100EF000CD01FEFF1143C269046A1143436A2143D5
:100F0000194329434FF02045F6B3D5F840612243F9
:100F10006FF30E0633431A43C5F84021026892006E
:100F2000A2F1C042C2F840116FF00F021301140386
:100F30000168160449B38900A1F1C041D1F84811F4
:100F400001F0704C816AD1E9007E02EB0E127F1E27
:100F500017438A6803EB022217430A8A04EB024212
:100F60001743D5F8482147EA0C0702F07043CA68D6
:100F7000898A120306EB0151A2F580520A431A43F3
:100F8000C5F84821006801E006E008E08000A0F113
:100F9000C040C0F84871F0BDC5F84011C4E7D5F8AD
:100FA0004811806A01F07047D0E9001C02EB0C1276
:100FB000491E1143826803EB02221143924BC2681F
:100FC00003EB02321143028A04EB02421143828A8C
:100FD000007E06EB025211431A0302EB006001434C
:100FE0003943C5F84811F0BD00220260426010216B
:100FF00040238260C0E90313802343614B01C0E9B1
:10100000063202624262826A1160826A5160826ABA
:101010009160826AD160826A1161826A5161806ADC
:1010200081617047D0E90012114382686FF01F039D
:10103000C06803EB421242EA402001434FF02040D7
:10104000C0F8501170474FF020410028D1F85801E6
:1010500003D000F018008008704700F006007047C9
:101060004FF02041D1F8542142EA4000C1F8540128
:1010700070474FF02041D1F8502142EA4010C1F8AA
:10108000500170478000A0F1C0400029D0F8401105
:1010900002D041F4007102E047F6FF521140C0F85F
:1010A0004011704730B54FF480752C014FF020434C
:1010B000A2B1102804D0A84205D153F8840F06E04D
:1010C000586E084313E0A04204D153F8A40F08431C
:1010D000186030BDD3F85401084313E0102804D041
:1010E000A84206D153F8840F07E0586E884358662B
:1010F00030BDA04203D153F8A40F8843E8E7D3F8EA
:1011000054018843C3F8540130BD00224FF02043FE
:1011100010280AD0B0F5807F09D0B0F5805F09D0E3
:10112000D3F85801814309D107E0586EFAE7D3F8A4
:101130008400F7E7D3F8A400F4E7012210467047D3
:101140004FF0204210280BD0B0F5807F0CD0B0F5C6
:10115000805F0CD0D2F854018843C2F85401704724
:10116000506E88435066704752F8840F01E052F881
:10117000A40F88431060704730B500231C464FF021
:101180002045102815D0B0F5807F14D0B0F5805FD1
:1011900014D0D5F85421D5F8584102EA010580B1A0
:1011A00001280ED002EAD10008B105B1012318468A
:1011B00030BD6A6EF1E7D5F88420EEE7D5F8A420BB
:1011C000EBE704F00100EFE74FF0204210280CD0CD
:1011D000B0F5807F0ED0B0F5805F0ED0D2F854010C
:1011E00040F00100C2F854017047506E20EAD1006F
:1011F0005066704752F8840F01E052F8A40F20EABD
:10120000D10010607047000000F0FFFFD24910B518
:10121000884202D101214C050AE0D049884202D11E
:1012200001218C0504E0CE4988420AD10121CC0578
:101230002046FFF7EAF92046BDE810400021FFF7FD
:10124000E4B910BD7FB5044680880D4620F03F0606
:101250006846FFF7F5F8C3490298B0FBF1F189B28F
:101260000E43A680228822F001022280BE4B2A680B
:101270009A421BD85200B0FBF2F080B2042800D290
:101280000420491C2184A083208840F00100208094
:1012900020884FF6F5310840A9886A891143014337
:1012A0002180A8892989084320817FBDEB88A3F587
:1012B0003F46FF3E0BD002EBC20303EB0212B0FB32
:1012C000F2F080B240F48040020506D007E002EB65
:1012D0004202B0FBF2F080B2F6E740F001004FF4BA
:1012E000967251434FF47A72B1FBF2F140F4004030
:1012F000C7E741F288310160002181804BF6FF721F
:10130000C280018141814FF4804181817047002971
:10131000018802D041F0010101E021F001010180CA
:1013200070470029818C02D021F0100101E041F0CA
:10133000100181847047828C01F00F0122F00F02AE
:101340001143818470470029018802D041F48071E3
:1013500001E021F48071018070470029018802D0EA
:1013600041F4007101E021F400710180704712B175
:1013700041F0010101E001F0FE0101827047002906
:10138000018802D041F4806101E021F48061018094
:101390007047828901F0FE0122F0FE021143818133
:1013A00070470029818902D041F0010101E021F05C
:1013B0000101818170470029018802D041F040017C
:1013C00001E021F04001018070470029018802D02E
:1013D00041F4004101E0C1F30E0101807047002992
:1013E000018803D021F080010180704741F0800125
:1013F000FAE7B1F5804F818B02D021F4804101E002
:1014000041F4804181837047B1F5006F018803D0BA
:1014100021F400610180704741F40061FAE7B1F501
:10142000005F018803D021F400510180704741F42E
:101430000051FAE70029018802D041F0100101E0D3
:1014400021F010010180704701827047008AC0B20C
:1014500070470029018802D041F4805101E021F455
:10146000805101807047B1F5006F018803D021F4ED
:1014700000610180704741F40061FAE700290188AA
:1014800002D041F0200101E021F0200101807047ED
:10149000008B000A70470029818802D041F4006166
:1014A00001E021F40061818070470029818802D029
:1014B00041F4805101E021F480518180704708B5EA
:1014C00008440090008808BD002A828801D00A43A1
:1014D00000E08A4382807047034600209A8A1B8B73
:1014E00042EA034222F07F42914300D1012070473B
:1014F000818A008B41EA004121F07F4070470CB5A2
:101500000246002000920A0F21F07F41019202D092
:10151000009A143202E0009A090C18320092126804
:101520000A4200D001200CBDC9438182704710B52A
:10153000034600209A884FF4E06404EA11449B8A31
:10154000224021F07F410B4202D0002A00D001202E
:1015500010BDC943818270470054004000580040CC
:10156000005C004040420F00A086010010B5012140
:101570008C062046FFF753F82046BDE810400021B6
:10158000FFF74DB830B5F74A1368F7490B401360C1
:10159000038A146845692C4344EA03441460121D0D
:1015A00013680B401360038B1468C5692C4344EA2D
:1015B00003441460121D13680B401360038C1468FD
:1015C000456A2C4344EA03441460121D13680B401F
:1015D0001360018D1368C46A234343EA0143136017
:1015E000111D0A68E14B1A400A60D0E900231A4332
:1015F000D0E9023423431A430B681A430A60416B53
:101600000A02018E0B04D74924310C6804F07F4490
:101610000C600C68806B134304431C430C6030BDAA
:101620000021016041608160C160016141618161AF
:10163000C161016241628162C16201634163816390
:101640007047C84910310028086802D040F00100F6
:1016500001E020F0010008607047C2491031002805
:10166000086802D040F4803001E020F48030086047
:101670007047BC4910310A68BC4B1A400A600A68BE
:101680000B68C2F302120968C3F30223C1F30231EB
:101690000260C0E901317047022101604160816050
:1016A0007047B049383108607047AE491C31086056
:1016B000704770B58A88436803F4704343600B68D1
:1016C00043EA024343608A89836803F4704383607A
:1016D0008B6843EA02438360026922F007020261D9
:1016E0000A690261CA6991F8243014020A8C85697A
:1016F0001204002686618D6942EA03622543154380
:101700008561426922F0FF0242614A694261C26911
:1017100040F207739A43C261D1E90A231A43C261B6
:10172000826A86620A6B82620A8FC36A03F0E023D0
:10173000C3624B6B43EA0243C362026B6FF30A025C
:101740000263C96B016370BD00210160416081606B
:10175000FF22C160C0E904128161C1614FF4C0621F
:101760000162C0E909120722C0E90B2141638163CC
:10177000C16370470029016802D041F0010101E016
:1017800021F001010160704776493C310A6800226E
:101790000A600A680968120C89B2C0E90021704722
:1017A00000210160416070476E4940310968014283
:1017B00001D0012070470020704710B592B1026837
:1017C00042F0020202604A68C46813020A8904F007
:1017D0007F44C460C468096843EA02430C431C4365
:1017E000C46003E0016821F0020101605D4901204D
:1017F0001C31086010BD00210160416081607047AC
:101800000029016802D041F0100101E021F010012F
:101810000160544901201C310860704710B58A6886
:1018200014028A8913040A7849681C4341EA026158
:101830002143016410BD0021016041608160C160ED
:10184000704710B5436803F470434360836803F442
:1018500070438360434B1B1D1C6801EB144312FA59
:1018600084F20169521C5B1CF1B101291ED00429CC
:101870001ED002291CD003291AD0072918D0012113
:10188000C46AC4F30C04E41EB4FBF1F1046B194404
:10189000491EC4F30A0443EA014114444160641E32
:1018A00042EA0441816010BD0421E9E70321E7E732
:1018B0000221E5E74161704781627047F0B5036935
:1018C0000BB3012B21D0042B21D0022B1FD0032BD3
:1018D0001DD0072B1BD001234468C4F30C0584687A
:1018E0004E19C4F30C041719761E45EA06454560E7
:1018F0007F1E44EA074484605943CB1C43EA0141FC
:10190000C1620263F0BD0423E6E70323E4E7022398
:10191000E2E702690AB3012A21D0042A28D0022A68
:1019200026D0032A24D0072A22D00122C36A1B0C06
:10193000B3FBF2F3F1B101291ED004291ED0022914
:101940001CD003291AD0072918D001225343DA1CCE
:1019500042EA0342C262016170470422E6E70322C1
:10196000E4E700000868014000F800F08F88FE0FEF
:101970000222DBE70422E9E70322E7E70222E5E7A8
:10198000144A0029116801D0014300E0814311602D
:10199000704701460F4A0020121D12680A4200D00B
:1019A000012070470B49083108607047094A00213F
:1019B000121D1268024200D00121064A126802423A
:1019C00002D009B101207047002070470149083159
:1019D000086070473468014010B501210C072046AB
:1019E000FEF713FE2046BDE810400021FEF70DBEB5
:1019F000444908627047444A116821F0E0010143FC
:101A0000116070473F49086170473E49C1F8A00026
:101A100070473C49C1F8A40070473B4A116821F463
:101A200040410143116070473649086470473549A9
:101A30004864704734490028086802D040F44020C8
:101A400001E020F44020086070472E4900B10120D9
:101A5000C86270472B4900B101208862704729494C
:101A600048627047284B10B51A6840F60344A243F9
:101A700002431A602548026842F00402026001290C
:101A800005D020BF016821F00401016010BD30BF06
:101A9000F8E71D4B10B51A6840F60344A243024311
:101AA0001A601A48026842F004020260012905D057
:101AB00020BF016821F00401016010BD30BFF8E7CC
:101AC0001148016841F0020101601048016841F0CD
:101AD0000401016030BF70470B4A01460020526884
:101AE0000A4200D0012070470749B0F5402F04D0CA
:101AF0000A6842EA800008607047486840F4402065
:101B00004860704700000E420070004010ED00E099
:101B100018B50020FA4B0090CA20186053201860B6
:101B2000F7491839086820F0A00008604FF4003425
:101B30000868009A00F02000521C0092A24201D0D6
:101B40000028F5D00868800601D5012000E00020BB
:101B5000FF21196018BD08B5E94900201839009027
:101B60000868400612D44FF0FF3008608B130868F5
:101B7000009A00F04000521C00929A4201D00028C6
:101B8000F5D00868400601D4002008BD012008BD3A
:101B900078B50024DA4ECA200094254630605320E0
:101BA0003060FFF7D8FFE0B3D54824380460D4494B
:101BB00042F20110203908600B1D186800F0070080
:101BC00018608D131A1D1068009900F00400491C5C
:101BD0000091A94201D00028F5D01068400729D50E
:101BE00018681C60C6494FF6FF7010390860091F5D
:101BF000C4480860C2480C380460001D0460001D21
:101C00000460BF4808300460BD4818300460BC4818
:101C100020300460001D04601460B9481C3004606A
:101C200000E003E0FFF774FF20B10125FF203060E2
:101C3000284678BD0025F9E7B1481838016821F039
:101C400080010160704770B5AD4E04460025CA2082
:101C5000306053203060FFF77EFFA8B1A8481C38E1
:101C6000016821F0400101600168226811430160B0
:101C7000A348A168143801600168A28841EA0241C2
:101C80000160FFF7D9FF0125FF203060284670BDB5
:101C9000002101607F214160FF21816070479849E8
:101CA00008B1FF2002E0CA20086053200860704796
:101CB00070B5934E05460024CA2030605320306032
:101CC000FFF749FF60B18E481C38016815B141F03B
:101CD000100101E021F010010160FFF7ADFF0124C8
:101CE000FF203060204670BD854ACA211160532113
:101CF000116083491C390028086802D040F0200098
:101D000001E000F0DF000860FF20106070472DE95F
:101D1000F0410C4600267C4F01002078396832469D
:101D20004FEA416104D000292FDA00F00CFC2DE0CD
:101D3000002900DBE27000F0FAFB0504607800F097
:101D4000F6FB45EA0025A07800F0F1FB0543E078BA
:101D500045EA00456A4CCA20206053202060FFF706
:101D6000FAFE68B169480540674808380560FFF722
:101D700063FF3868800602D4FFF7CAFE00B101266F
:101D8000FF2020603046BDE8F081E270A078217825
:101D900040EA01456078E178000240EA01400543ED
:101DA000D8E70021C1700170417081707047020056
:101DB00010B557480C460168544801EA0001C1F3C8
:101DC00005402070C1F30623637001F07F03A37008
:101DD0004FF0400303EA1141E1700AD100F0B3FB78
:101DE0002070607800F0AFFB6070A07800F0ABFB73
:101DF000A07010BD4248001D00684349091F0968D2
:101E0000704770B50C460026010060780FD000F0D6
:101E10009AFBA07800F097FBA078E17840EA0145B2
:101E200060782178000240EA4130054315E0C106A0
:101E300003D520F010000A306070E07800F077FBE6
:101E40000504607800F073FB45EA0025A07800F0F7
:101E50006EFB0543207845EA4035294CCA202060B6
:101E600053202060FFF777FE70B12A4805402648CE
:101E7000001F0560FFF7E0FE23480068800602D4DB
:101E8000FFF746FE00B10126FF202060304670BDFE
:101E900001210170817041700021C1707047020002
:101EA00010B51D480C4601681A4801EA00014FEAC6
:101EB0001140E070C1F30423637001F03F03A3708D
:101EC000C1F3423121700AD100F03DFBE07060782F
:101ED00000F039FB6070A07800F035FBA07010BDF9
:101EE00070B514460D46084A0021002810684FEAD4
:101EF000406013D000282ADA207800F024FB27E085
:101F000024280040FF007F00082800407F7F7F00DA
:101F1000002800403FFFFF0004280040002800DBAD
:101F2000E170207800F003FB0604607800F0FFFA0F
:101F300046EA0026A07800F0FAFA0643E07846EA7E
:101F40000046207B00F0F3FA46EA006010E0E17002
:101F5000207B00F0F8FAA0782178E27840EA01408E
:101F60006178090241EA02410843217B40EA0160AD
:101F7000A168084361680843F849CA220A605322ED
:101F80000A60B5F5807F04D00A1F1060FF2008604A
:101F900070BDF24A083AF8E70021C1700170417043
:101FA00081700122816002734160704710B5144650
:101FB0000246B1F5807F2AD0E848001F0168C1F3CE
:101FC00005402070C1F30623637001F07F03A37006
:101FD000402303EA1143E370C1F30563237301F067
:101FE000804301F08031C4E90113002A0ED100F0D2
:101FF000AAFA2070607800F0A6FA6070A07800F06D
:10200000A2FAA070207B00F09EFA207310BDD34886
:102010000838D3E738B50022D04C0092CA2222609B
:1020200053222260CD4A1C3A0029116802D0014394
:10203000116012E081431160C84A183A9513116883
:10204000009B01EA10215B1C0093AB4201D00029E8
:10205000F5D0116811EA102000D00120FF21216085
:1020600038BD10B5BD4BCA241C6053241C601143FD
:10207000B0F5807F05D0B94824300160FF2018609A
:1020800010BDB6482030F8E7B0F5807F05D0B348E2
:1020900024300068C0F30E007047B0482030F8E7E5
:1020A000AE4ACA21116053211160AC491C390B683A
:1020B00023F007030B600B6803430B60FF201060E5
:1020C0007047A649CA220A6053220A60A34A103AFE
:1020D0001060FF2008607047A0481038006880B288
:1020E000704718B500219D4B0091CA2119605321FA
:1020F00019609A491C390028086803D040F48060B0
:10210000086014E020F480600860944918398C134A
:102110000868009A00F00400521C0092A24201D00C
:102120000028F5D00868400701D4002000E0012015
:10213000FF21196018BD894B10B5CA221A605322BD
:102140001A60864A1C3A146824F4802414601468C7
:10215000084304431460FF20186010BD7F481C38FA
:10216000006800F4802070477C4B10B5CA221A60CA
:1021700053221A60794A1C3A146824F4E00414606B
:102180001468084304431460FF20186010BDF0B5C4
:10219000724D06460024CA200F462860532028604E
:1021A000FFF7D9FC30B16D483E430C380660FFF7AD
:1021B00043FD0124FF2028602046F0BD70B5674E26
:1021C00005460024CA20306053203060FFF7C3FC6E
:1021D00060B162481C38016815B141F0800101E02E
:1021E00021F080010160FFF727FD0124FF2030600E
:1021F000204670BD594ACA211160532111605749C8
:102200001C390028086802D040F4000001E020F4E6
:1022100000000860FF2010607047504ACA2111601A
:10222000532111604D491C390B6823F400230B60C6
:102230000B6803430B60FF2010607047F0B5474DFB
:102240000023CA242C6053242C60444C183C26687C
:10225000F60308D54FF400362768FF0303D5B342D1
:1022600001D05B1CF8E72368DB0306D408433B4935
:10227000104318310860012000E00020FF21296090
:10228000F0BD364B10B51C3B1A6840F60804A2435B
:1022900042EA000209B142F400623048CA210160FA
:1022A000532101601A60FF21016010BD70B50D4619
:1022B0002A4914460C310968294A1140274A10322C
:1022C00012684FF63F731A40C1F305432B70C1F3F8
:1022D00006236B7001F07F03AB70402303EA1141CA
:1022E000E9700021E170C2F30421617002F03F0146
:1022F000A170C2F342312170002817D1287800F074
:1023000022F92870687800F01EF96870A87800F04B
:102310001AF9A870607800F016F96070A07800F0E3
:1023200012F9A070207800F00EF9207070BD0B48F3
:10233000143000687047094A1C320029116803D024
:1023400041EA40001060704721EA4000FAE7034A82
:102350001C320029116805D0014304E02428004004
:102360007F7F7F008143116070477B490A6822F4B8
:10237000C0520A600A6802430A60704776490A68D8
:1023800022F4E0620A600A6802430A6070477249F8
:102390000A6822F4C0420A600A6802430A60704771
:1023A0006D490028086802D040F0800001E020F06C
:1023B00080000860704768490028086802D020F44F
:1023C000004001E040F4004008607047624A08B5F0
:1023D000103202EB80000090016008BD5E4908B534
:1023E000103101EB80000090006808BD5A490A686E
:1023F00022F480320A600A6802430A607047564934
:102400000A6822F400320A600A6802430A607047D0
:1024100051490A6822F480220A600A6802430A606D
:10242000704770B54C4C0022CA231C3C23605323D8
:102430002360494B343B1D682D0707D59E141D684A
:102440002D0703D5B24201D0521CF8E71A681207D3
:102450000DD4414A383A1268D20608D401433E48A6
:1024600014380160FFF754FB10B1012000E0002098
:10247000FF21216070BD30B5374DCA221C3D2A6056
:1024800053222A60344C20F00402383C0029324B9D
:10249000216800F0040004D0114321601968014351
:1024A00003E091432160196881431960FF2028608F
:1024B00030BD02462849002034390968274B1940AD
:1024C000114200D00120704780B240F08000C1432B
:1024D00021483438026802F08002114301607047DD
:1024E0001D4A10B5126800211B4B02F00402383B54
:1024F0001B6802EAD0340340234302EA104213432C
:10250000174A126802EA101003D00004000C00D031
:102510000121084610BDC0F30F1040F08000C143F8
:102520000F48026802F080021143016070470021E9
:1025300003E0491C0A38C9B2C0B20A28F9D2090717
:1025400040EA11607047010901EB810100F00F00C2
:1025500000EB4100C0B27047402800407F7F01007F
:102560000C280040C14910B5884202D101218414D1
:1025700024E0BF49884202D10121041404E0BD498E
:1025800088420AD10121C4132046FEF73EF82046B6
:10259000BDE810400021FEF738B8B749884202D1A3
:1025A000012144140AE0B549884202D101210C05F9
:1025B00004E0B34988420AD101214C052046FEF7C8
:1025C0002EF82046BDE810400021FEF728B810BDC7
:1025D00030B502884C8802F441530A88CD882243E2
:1025E0008C882C4322430C8922434C8922438C89BA
:1025F0002243CC8922431A430280828B22F4006258
:102600008283098A018230BDF0B502220023858BC6
:1026100001244FF24006354085830284868B8D6805
:10262000022D3DD08A8802B10224964A13681B020B
:1026300003D5136823F400031360924A7C321368B5
:102640001268C3F388138F4FC2F302723F1F3D68B5
:102650003F6805F03F057F0201D58B4F00E08B4FAF
:10266000B7FBF5F55D43B5FBF2F2CB88B3F5007F20
:102670002BD06301B2FBF3F202EB82028B685200B3
:10268000B2FBF3F2521D92B20A23B2FBF3F202F054
:102690000103D21A4FF6FF74C2F34F0204EA032378
:1026A000941EFE2C01D302220023CC881A4314432B
:1026B00004840A884B881A438B8889890B431A4300
:1026C000324342F400618183F0BD120AD4E7002155
:1026D000018041808180C180018141818181C181EE
:1026E0000721018270470021018041808180C180E3
:1026F00002228260818170470029018802D041F066
:10270000400101E021F04001018070470029818BE8
:1027100002D041F4806101E021F48061818370473F
:10272000028822F40062028002880A430280704715
:10273000B1F5804F018803D021F4804101807047BA
:1027400041F48041FAE7A1F57E420188FF3A02D0C8
:1027500041F4807101E021F480710180704700290B
:10276000818802D041F0040101E021F00401818060
:1027700070470029818802D041F0100101E021F06A
:1027800010018180704730B5828B00234FF24004E6
:102790002240828302220284848B0A884FF480754F
:1027A000B2F5007F00D002B92B464A888D8889890E
:1027B0002A4319430A43224342F40061818330BD16
:1027C00080897047818170470029018802D041F4D7
:1027D000005101E021F4005101807047018841F46B
:1027E000805101807047012901D0008B7047808A99
:1027F0007047008A7047002A828801D00A4300E0AF
:102800008A4382807047090901238B40002A82880D
:1028100099B201D00A4300E08A43828070470246A1
:10282000002012890A4200D001207047C94301816B
:10283000704730B501F00F030125024605FA03F495
:102840000020A3B2090905FA01F49188A4B2128903
:1028500021401A4202D0002900D0012030BD01F0F1
:102860000F0201219140C9430181704700300140AE
:1028700000380040003C004000340140005001405E
:10288000005401400838024000127A000024F4008D
:10289000CD4910B5884206D101211020FDF7BFFEB9
:1028A0000021102020E0C949884202D101214C04B6
:1028B00029E0C749884202D101218C0423E0C5499F
:1028C000884202D10121CC041DE0C349884202D1D3
:1028D00001210C0517E0C149884209D101212020BE
:1028E000FDF79DFE00212020BDE81040FDF797BEBA
:1028F000BB49884202D101218C0704E0B9498842D2
:102900000AD1012144052046FDF77FFE2046BDE89F
:1029100010400021FDF779BE10BD7FB50446008A46
:102920000D46C98820F4405001432182A08941F21C
:102930000C618843A9882A8911436A89024311439B
:10294000A181A08A20F44071A8890843A08268462A
:10295000FDF776FD9C48844202D0A048844201D114
:10296000039800E00298A189090400EBC00101EB83
:102970000010296801D5490000E08900B0FBF1F0A2
:102980006422B0FBF2F109010B096FF018056B43EB
:1029900000EB8300A3891D044FF0320306D503EB3F
:1029A000C000B0FBF2F000F0070005E003EB001000
:1029B000B0FBF2F000F00F00084320817FBD4FF420
:1029C0001651016000218180C18001810C22428169
:1029D0008181704710B5028A4C8822F470630A889E
:1029E00022438C88C9880C4322431A43028210BDBB
:1029F0000021018041808180C18070470029818948
:102A000002D041F4005101E021F40051818170476E
:102A1000028B02F47F420283028B0A4302837047D7
:102A20000029818902D041F4004101E0C1F30E0187
:102A3000818170470029818A02D041F4006101E060
:102A400021F4006181827047C1F3080181807047E1
:102A50008088C0F308007047028A22F00F020282C9
:102A6000028A0A43028270470029818902D041F01C
:102A7000020101E021F0020181817047828922F484
:102A80000062828182890A4382817047028A22F031
:102A900020020282028A0A43028270470029018AC8
:102AA00002D041F4804101E021F48041018270476D
:102AB000818941F00101818170470029818A02D01A
:102AC00041F0080101E021F0080181827047028B8A
:102AD000D2B20283028B42EA0121018370470029AE
:102AE000818A02D041F0200101E021F020018182A1
:102AF00070470029818A02D041F0100101E021F0E5
:102B0000100181827047828A22F004028282828AC6
:102B10000A43828270470029818A02D041F0020173
:102B200001E021F0020181827047002A828A01D0EF
:102B30000A4300E08A438282704710B5C1F3421312
:102B400001F01F040121A140012B07D0022B07D067
:102B50001430002A026805D00A4304E00C30F8E77C
:102B60001030F6E78A43026010BD0246002012884A
:102B70000A4200D001207047C9430180704770B5F8
:102B800001F01F0501260024C1F3421306FA05F2E5
:102B9000012B0FD0022B0FD0838A4FEA112100881E
:102BA000134206FA01F600EA060001D000B1012442
:102BB000204670BD8389F0E7038AEEE70A0A012107
:102BC0009140C9430180704700100140004400401B
:102BD00000480040004C00400050004000140140FC
:102BE00000780040007C004070B55A484168491C9C
:102BF0004160816811B18168491E816006F05EF90B
:102C00000024554E18E006EB8405686890B1017BFE
:102C100081B1826872B1521E826069680AD14869C6
:102C2000096988476868016881606868416809B90E
:102C300000210173641CE4B23078A042E3D870BD77
:102C4000464801684FF47A70B1FBF0F0401EB0F1D5
:102C5000807F12D24FF0E0225061414BF02083F888
:102C6000140D00209061072010613E48B1FBF0F187
:102C70003848C160012101707047FEE7354800788F
:102C8000002805D04FF0E020016941F00201016108
:102C900070474FF0E020016921F0020101617047A7
:102CA0002DE9F0472C4C0546DDF8209020781E4693
:102CB00017468846052802D30020BDE8F087182073
:102CC00011F086F80028F8D00560C0E90185077387
:102CD000C0E90469217804EB810148602178491C2E
:102CE0002170EAE71C4B30B400211A7806E003EBB0
:102CF00081046468844203D0491CC9B28A42F6D870
:102D00008A4218D003EB81004068EFF3108472B65A
:102D100005E003EB8102491C9568C9B255601A7839
:102D2000521E8A42F5DC1978491E197004B962B640
:102D300030BC11F025B830BC7047002101737047DA
:102D400001210173704701688160704741607047DD
:102D5000016070471000002094030020440100200F
:102D60000FE000E0C0C62D001CB503210020CDE916
:102D7000000103464C0301222146194800F086F861
:102D800017481A3004801CBD1CB500210220CDE973
:102D900000010B460A460121124800F077F81CBDDD
:102DA00010480069C107104805D0017829B90121F0
:102DB00001700846704700210170002070470948E3
:102DC0000069C107084803D0012101700020704745
:102DD00001780029FAD0002101700120704700001D
:102DE000001802400000024020000020A3490844CF
:102DF000C0F38F2070472DE9F04F9A46DDE909B8FE
:102E000089460346FFF7F2FFC5B200204FF0030EDC
:102E10000121814011EA090F28D0994E36F815405A
:102E20000C4326F81540DF6844000EFA04F6B74359
:102E30000BFA04FC47EA0C07DF601F6802FA04FC87
:102E4000B74347EA0C071F60012A01D0022A0DD1BF
:102E50005F6889B28F430AFA00F189B20F435F605D
:102E6000996808FA04F4B14321439960401CC0B248
:102E70001028CDD3BDE8F08F00B5FFF7B7FF0121D3
:102E80008140804802681143016000BDFCB51646D0
:102E9000DDE907C50C00074608D0FFF7EDFFCDE9D7
:102EA00000C5324621463846FFF7A5FFFCBD2DE997
:102EB000FC4F9946DDE90BB792460D00064622D03D
:102EC000FFF7DAFF002201214FF00F0C01FA02F0A8
:102ED00028420DD0D00806EB8003186A5407E40E90
:102EE0000CFA04F820EA080007FA04F420431862F8
:102EF000521C102AEAD3CDE9009B534602222946F0
:102F00003046FFF778FFBDE8FC8FF0B50E4605466A
:102F1000FFF76CFF00225A49C4B24FF0010C03279F
:102F20000CFA02F333420CD028684FEA420E07FA3B
:102F30000EFE40EA0E00286031F81400984321F894
:102F40001400521CD2B2102AEAD3F0BDF0B5002210
:102F50000125032605FA02F30B4205D00468570049
:102F600006FA07F39C430460521CD2B2102AF1D334
:102F7000F0BDF0B500220127032607FA02F33C4614
:102F80000B4208D00568530006FA03FC25EA0C053D
:102F90009C4025430560521CD2B2102AEDD3F0BDEF
:102FA000F0B500220125032605FA02F30B4205D0F5
:102FB0000468570006FA07F31C430460521CD2B29F
:102FC000102AF1D3F0BDF0B5002201260324022718
:102FD00006FA02F30B4209D00568530004FA03FC19
:102FE00025EA0C0507FA03F31D430560521CD2B213
:102FF000102AEDD3F0BDF0B500230127032507FA11
:1030000003F40C4209D0C6685C0005FA04FC26EA09
:103010000C0602FA04F42643C6605B1CDBB2102BDC
:10302000EDD3F0BD41F48032C261C161C261C169BA
:10303000C0697047002102E0491C89B2400801289C
:10304000FAD80846704700B5FFF7D0FE012181404D
:103050000C4802688A43026000BD00B5FFF7C6FE57
:10306000074931F8100000BD00B5FFF7BFFE044965
:1030700031F81000C04380B200BD00000000FEBF68
:10308000AC0300203038024010B501210803FDF7E1
:103090006CFAFFF7D5FD00F04EFD01F068FE022846
:1030A00001D0022010BD07F06BFB08B1032010BD5A
:1030B0002D4901208871002010BD10B5002000F0BE
:1030C000CCFDFF2000F0CCFD00F0B0FA2649012035
:1030D0000839087010BD10B5002000F0C1FDFF20B8
:1030E00000F0BBFD00F08FFA1F490020083908707E
:1030F00010BD10B507F040FA1B49044608394A686C
:103100001AB1087808B100F0CFFD204610BD0120AB
:10311000704770B5144C083C6078401CC0B26070B9
:10312000322819D3002565700F4801F017FF0E48AB
:103130000E4902880A6042884A60007970B1002016
:1031400008724D72A178884200D129B1A070074859
:1031500008F0C8F807F010FA002070BD0120EFE772
:1031600002F098BB02F092BB2C000020C4030020A8
:1031700070472DE9F04F15460446DFF8ECB3002602
:10318000DFF8E8C304220123F948FA4F87B04FF46F
:1031900080494BF6FF7A5C452DD1DCF8008048F47D
:1031A0000018CCF8008031B101290AD0022911D0D1
:1031B000032916D019E0CDE9003201231A46C021B7
:1031C00005E0CDE9003201231A464FF44071FFF7C4
:1031D0006EFE0AE0CDE9003201231A464FF4107169
:1031E000F5E704215846FFF7C3FF3868A84200D925
:1031F0003D60386866E0DFF880B3DFF880E35C4567
:103200002ED1DCF8008048F48008CCF8008031B181
:1032100001290BD0022912D0032917D01AE0CDE9D9
:10322000003201231A464FF4406105E0CDE9003237
:1032300001231A460321D248FFF739FE0AE0CDE9FF
:10324000003201231A4630217046F5E70421584622
:10325000FFF78EFF7868A84200D97D60786831E07A
:10326000C848844239D1DCF8008048F40008CCF822
:10327000008021B1012913D003291BD01DE09B46FA
:1032800090460123CDE900B81A461902BE48FFF75F
:103290000EFE0123CDE900B81A465902BB4806E0EC
:1032A000CDE9003201231A464FF4C0717046FFF792
:1032B000FEFD02E00421FFF75BFFB868A84200D9D9
:1032C000BD60B868ADF80C60ADF810600290ADF864
:1032D0001490ADF81260ADF80EA0208820F0010027
:1032E000208002A92046FDF7ADFF208840F00100B4
:1032F000208007B0BDE8F08F70B50446008820F448
:1033000080602080208840F400702080994D44F631
:1033100020602D1F9E4E286003E02A68521E2A60FE
:1033200008D031462046FEF7D7F80028F5D0208A8D
:10333000C0B270BD012070BD70B50446008840F475
:10334000807020808B4D44F620662D1F2E6003E098
:103350002868401E28602AD0A08AC007F8D01BB178
:10336000208840F4806020805AB921F0010020823A
:103370002E6003E02868401E286018D0A08A8007CD
:10338000F8D5012A10D141F0010020822E60804E34
:103390003E3E03E02868401E286008D031462046A3
:1033A000FEF79AF80028F5D0208B002070BD012090
:1033B00070BD704A44F62061121F116003E011686D
:1033C000491E11600BD0818A0906F8D5818A490708
:1033D000F5D5018841F4007101800020704701207B
:1033E0007047644B44F620621B1F1A60828A1206E3
:1033F00003D41A680AB1521EF7E70182704770B50C
:10340000164600230C4605461A46FFF795FF31463F
:103410002846FFF7E6FF2846FFF7CBFF00230122EF
:1034200021462846FFF788FF2846BDE8704063E73D
:1034300070B50546008840F4806028804D4C44F605
:103440002060241F524E206003E02268521E22603A
:1034500008D031462846FEF73FF80028F5D0288AE4
:10346000C0B270BD012070BD2DE9F0411C46174669
:103470000E46804601230022069DFFF75DFF394678
:103480004046FFF7AEFF01231A4631464046FFF79C
:1034900053FF05E0404645B1FFF7CAFF04F8010BB2
:1034A0006D1EADB2F6D2BDE8F081FFF725FFF5E75E
:1034B00010B5012304461A46FFF73EFF2046BDE83B
:1034C000104019E770B51D461446012306461A46FA
:1034D000FFF732FF05E030463DB1FFF7A9FF04F8E2
:1034E000010B6D1EADB2F6D270BDFFF705FFF6E71A
:1034F00070B51D461646002304461A46FFF71CFF0A
:1035000031462046FFF76DFF29462046FFF769FF49
:103510002046BDE870404CE72DE9F0411D461746B6
:10352000002306461A46069CFFF706FF394601E0CF
:1035300015F8011B3046FFF754FF641EA4B2F7D202
:103540003046BDE8F04134E770B515460023044627
:103550001A46FFF7F1FE29462046FFF742FF2046B4
:10356000BDE8704025E700000054004040380240AC
:10357000000402404000002000580040001C0240AF
:1035800000140240005C00400000024000080240BD
:103590004000030070B51C461546002306461A4637
:1035A000FFF7CAFE04E015F8011B3046FFF719FFCC
:1035B000641EA4B2F7D23046BDE87040F9E670B59B
:1035C0000024054601232246FFF7B6FE00B9012478
:1035D0002846FFF7EEFE204670BD00000288520626
:1035E00001D40020704702899207FCD0028912069C
:1035F000F9D4818101898907FCD001890906F9D4B0
:103600008089C0B27047FF480021816041717047D6
:1036100030B5FC4A4FF41634002180B2A1F140537A
:103620009568891CA142E852F8D330BDF5484FF4A3
:103630001631816001214171704730B591B01E2073
:10364000009040F20D1001900420029040F24310CF
:10365000039002200490FF20059000200690079020
:10366000089009904FF480600A9005200B9040F27A
:10367000E3100D90C01E0E904FF4A0700F904FF00D
:103680005040E14C0C9069462046FEF712F8DF49A5
:103690000C914FF4C0610A91DB4D07210B918035ED
:1036A00069462846FEF705F80120FDF7FEFF0121D7
:1036B0002046FEF75FF801212846FEF75BF801205F
:1036C000FDF7F3FF0120FDF7C8FF0120FDF7B9FF6B
:1036D000FF212046FEF7EEF800212846FEF7EAF823
:1036E0000120FDF7E2FF11B030BDC94800B5016807
:1036F0008FB041F080610160C5481438016841F421
:1037000000010160002002900390009001900C9055
:103710000D900E9004220721C020FCF749FE4FF4C3
:103720008030FCF716FF0120FCF74BFE3D20FCF734
:10373000D9FD0028FAD009200490012005901D2011
:1037400006900320079040F20D10089040F24310BD
:10375000099040F217100A9040F247100B9068460B
:10376000FDF710FF0FB000BDAA4B10B54FF400528B
:103770001A80A94A042414800146A848FFF72EFFA6
:10378000A548801E048010BD01B5009801E0401ED0
:1037900000900028FBD108BD9E4B10B59B1E4FF436
:1037A00000521A809C4A0424148001469B48FFF76B
:1037B00015FF9948801E048010BD10B5CA20FFF780
:1037C000D3FFC320FFF7E8FF0820FFF7E5FF5020F5
:1037D000FFF7E2FFCF20FFF7C7FF0020FFF7DCFF76
:1037E000C120FFF7D9FF3020FFF7D6FFED20FFF70C
:1037F000BBFF6420FFF7D0FF0320FFF7CDFF1220AF
:10380000FFF7CAFF8120FFF7C7FFE820FFF7ACFFF3
:103810008520FFF7C1FF0020FFF7BEFF7820FFF7EC
:10382000BBFFCB20FFF7A0FF3920FFF7B5FF2C200F
:10383000FFF7B2FF0020FFF7AFFF3420FFF7ACFF28
:103840000220FFF7A9FFF720FFF78EFF2020FFF7E8
:10385000A3FFEA20FFF788FF0020FFF79DFF00206D
:10386000FFF79AFFB120FFF77FFF0020FFF794FFDB
:103870001B20FFF791FFB620FFF776FF0A20FFF726
:103880008BFFA220FFF788FFC020FFF76DFF1020FD
:10389000FFF782FFC120FFF767FF1020FFF77CFFD3
:1038A000C520FFF761FF4520FFF776FF1520FFF7E2
:1038B00073FFC720FFF758FF9020FFF76DFF3620FA
:1038C000FFF752FFC820FFF767FFF220FFF74CFF1A
:1038D0000020FFF761FFB020FFF746FFC220FFF78F
:1038E0005BFFB620FFF740FF0A20FFF755FFA72038
:1038F000FFF752FF2720FFF74FFF0420FFF74CFF91
:103900002A20FFF731FF0020FFF746FF0020FFF7D6
:1039100043FF0020FFF740FFEF20FFF73DFF2B2084
:10392000FFF722FF0020FFF737FF0020FFF734FFEB
:103930000120FFF731FF3F20FFF72EFFF620FFF7B2
:1039400013FF0120FFF728FF0020FFF725FF0620C7
:10395000FFF722FF2C20FFF707FF314C2046FFF72F
:1039600013FF2620FFF700FF0120FFF715FFE020DF
:10397000FFF7FAFE0F20FFF70FFF2920FFF70CFFDC
:103980002420FFF709FF0C20FFF706FF0E20FFF7AA
:1039900003FF0920FFF700FF4E20FFF7FDFE782010
:1039A000FFF7FAFE3C20FFF7F7FE0920FFF7F4FED1
:1039B0001320FFF7F1FE0520FFF7EEFE1720FFF7BB
:1039C000EBFE1120FFF7E8FE0020FFF7E5FEE12007
:1039D000FFF7CAFE0020FFF7DFFE1620FFF7DCFE30
:1039E0001B20FFF7D9FE0420FFF7D6FE1120FFF7BA
:1039F000D3FE0720FFF7D0FE3120FFF7CDFE3320A6
:103A000010E00000D003002084680140005802D07C
:103A1000443802401A0C02401A080240005001408B
:103A200040420F00FFF7B8FE4220FFF7B5FE052029
:103A3000FFF7B2FE0C20FFF7AFFE0A20FFF7ACFE47
:103A40002820FFF7A9FE2F20FFF7A6FE0F20FFF783
:103A5000A3FE1120FFF788FE2046FFF795FE2920E0
:103A6000FFF782FEBDE810402C207DE62DE9FC47E3
:103A700001240025DFF80C94CDE900542B462246A2
:103A800061034846FFF702FAFF4FCDE900540023D7
:103A9000012204213846FFF7F9F90E2503240023FB
:103AA0001A4641F65801F948CDE90045FFF7FFF9FC
:103AB0000926DFF8DC83CDE9004600231A460321FE
:103AC0004046FFF7F4F900231A464FF47061404670
:103AD000CDE90045FFF7EBF900231A464FF4986152
:103AE0003846CDE90045FFF7E2F900231A464FF4C6
:103AF00089614846CDE90045FFF7D9F900231A4608
:103B00003915E448CDE90045FFF7D1F9CDE9004585
:103B1000E14D00231A464FF40C612846FFF7C7F920
:103B2000CDE9004600231A464FF4A0512846FFF77E
:103B3000BEF9BDE8FC8710B5FFF798FFD249042015
:103B4000183108800021D54800F03FFF00F0E4FC68
:103B5000FFF733FEFFF7C9FDFFF76FFDD0480021E7
:103B6000F02241800180CF4802804FF4A072428051
:103B70000122027181734171FF22816002734173DE
:103B8000FFF741FD4FF6FF742046FFF741FDFFF7B9
:103B90004DFD2046FFF73CFDBDE8104033E510B574
:103BA0002920FFF7E1FDBDE810400120FDF749BDE8
:103BB00010B52820FFF7D8FDBDE810400020FDF724
:103BC00040BD70B5B74B1D8885421FD95C888C42BB
:103BD0001CD99C7B93B2B34A4FF0504692685CB1BB
:103BE000012C0ED0022C12D0C1F1EF0189B2C0EB32
:103BF000001001EB001006E0C0F5963005FB110047
:103C000001E005FB010006EB4000135270BDA0F27D
:103C10003F10404280B2EAE7A249F0224FF4A0737D
:103C2000887330B1012804D00B804A8000200871CD
:103C300070470A804B800120F9E710B5994C9A48EB
:103C4000217BFDF737FE9848617B8030FDF732FE1F
:103C5000BDE810400120FDF728BD92490873ECE74C
:103C600090494873E9E78F4810B5407940B1FFF7B4
:103C7000CAFCFF20FFF7F1FF0020BDE81040EFE78E
:103C8000FFF7D4FC0020FFF7E8FFFF20F5E71CB5A5
:103C90000020009001904FF4A073F0224FF05041AB
:103CA000824802F0E9FE1CBD1CB500200090019086
:103CB0004FF4A073F0227D494FF0504002F0DCFE3B
:103CC0001CBD2DE9F047DFF8D8C1DDE908A8ACF844
:103CD00000009146ACF802101A781E461044714A52
:103CE0001288904206D970780844ACF8020000208F
:103CF000ACF80000002529E0A9F1200111FB0050DB
:103D00007268002432F810701CE007FA04F0000416
:103D100009D5BCF802005246284481B2BCF8000024
:103D2000204480B20BE0B8F1000F0ADBBCF80200BF
:103D30004246284481B2BCF80000204480B2FFF71C
:103D400040FF641C3078A042DFD86D1C7078A84218
:103D5000D2D83078BCF800100844ACF80000BDE8B8
:103D6000F0872DE9FC434E4DDDE9099828801F4678
:103D70001446064669800BE00A2A0ED00D2A15D09B
:103D8000CDE900983B4669882888641CFFF799FFB5
:103D90002278002AF0D1BDE8FC8368887978401C3D
:103DA0000844688060780D2802D02E80641CEFE7FC
:103DB00000202880641CF9E730B54D7800241D8070
:103DC00002E00B7823449CB210F8013B002BF8D1A1
:103DD000148030BD2DE9F84F9446324A0C46054612
:103DE00011881F46481EA94200D885B2614501D8F6
:103DF0001FFA80FC5188481EA14200D884B2B94203
:103E000000D887B2654502D2ACEB050001E0A5EB16
:103E10000C000FFA80F9BC4201D2381B00E0E01B15
:103E20000FFA80F84FF0FF30654501D2012100E024
:103E300001460091BC4200D2012083464846C1455C
:103E400001DCC8F1000000EBD070401006B2C9F1EF
:103E5000000A214628460A9AFFF7B3FE654501D1BC
:103E6000BC4229D03046564505DDA0EB08010EB214
:103E7000009929448DB24045EBDA06EB090006B201
:103E800016E00000000C0240000802400000024062
:103E9000000402400014024000180240005001409B
:103EA0004C000020D003002084680140005802D05C
:103EB00004EB0B0084B2CCE7BDE8F88F2DE9F841A4
:103EC0001D46079C16460F4680460B460094FFF79A
:103ED00081FF42462B46394610460094FFF77AFF91
:103EE00032462B46394610460094FFF773FF2B46A7
:103EF0003246194640460094FFF76CFFBDE8F88152
:103F00002DE9F04F0746C2F101000FFA80FCC2EB29
:103F1000C230400098460E464FF0010A0FFA80F971
:103F200000251446DDF824B05AE0BCF1000F09DB8F
:103F300009F102000FFA80F9641E0CEB090024B2AB
:103F40000FFA80FC0AF102000FFA80FA6D1C0CEBEC
:103F50000A000FFA80FC2DB25FEAC8700DD0701B0A
:103F600081B2381B80B25A46FFF72BFE301B81B25C
:103F7000781B80B25A46FFF724FE5FEA88700DD5A1
:103F8000301B81B2781980B25A46FFF71AFE701BB7
:103F900081B2381980B25A46FFF713FE5FEA4870C3
:103FA0000DD5301981B2781980B25A46FFF709FE53
:103FB000701981B2381980B25A46FFF702FE5FEAE3
:103FC00008700DD5301981B2781B80B25A46FFF7C0
:103FD000F8FD701981B2381B80B25A46FFF7F1FD27
:103FE000A542A2DBBDE8F08F2DE9FC4F8146DDE95B
:103FF0000B451E4690460F464A4570D0BE426ED0D5
:104000002CB94246394648460095FFF757FF4146CE
:10401000C14501D9C8468946B74202D930463E4615
:104020000746A8EB090000EBD070B4EB600F01DD90
:10403000C0F34F04F01B00EBD070B4EB600F01DD58
:10404000C0F34F04A8EB0400CDE9005082B209EBA5
:10405000040B3B461FFA8BF01946FFF7BBFEA6EB9D
:10406000040A27444A461FFA8AF3B9B2104600955B
:10407000FFF7B0FE42461FFA8AF3B9B21046009528
:10408000FFF7A8FE0198334682B200951FFA8BF025
:104090001946FFF79FFE3EB20FFA8BF022B2804620
:1040A0000123144631460095FFF72AFF0198314657
:1040B00007B20095022322463846FFF721FF0FFA88
:1040C0008AF638460423224631460095FFF718FF4A
:1040D00031464046082322460095FFF711FFBDE810
:1040E000FC8F2DE9FC4F0446C2F101000FFA80F964
:1040F0000120DDF82C800190C2EBC23040009A46CE
:104100000F460FFA80FB0026154671E0B9F1000F4B
:1041100009DB0BF102000FFA80FB6D1E09EB0B00AF
:104120002DB20FFA80F9761C019836B2801C00B2CD
:10413000019048440FFA80F95FEACA7013D0781BE7
:10414000A11B8AB283B281B2A0B2CDF80080FFF782
:1041500041FEB81B611B8AB283B281B2A0B2CDF816
:104160000080FFF737FE5FEA8A7013D5781B83B2B1
:1041700081B2A019A2B280B2CDF80080FFF72AFE6A
:10418000B81B83B281B26019A2B280B2CDF80080B0
:10419000FFF720FE5FEA4A7013D57819A1198AB299
:1041A00083B281B2A0B2CDF80080FFF713FEB81938
:1041B00083B281B26019A2B280B2CDF80080FFF75D
:1041C00009FE5FEA0A7013D5781983B281B2A01B89
:1041D000A2B280B2CDF80080FFF7FCFDB819611BD8
:1041E0008AB283B281B2A0B2CDF80080FFF7F2FDAF
:1041F000AE428BDB73E72DE9F8411D4617460C46AE
:104200008046079E08E023463A46194640460096F7
:10421000FFF7E0FD641CA4B2AC42F4D96EE62DE9D0
:10422000F84F8146DDE90A451E4690460F464A454D
:1042300066D0BE4264D02CB9424639464846009505
:10424000FFF7D9FF4146C14501D9C8468946B74263
:1042500002D930463E460746A8EB090000EBD07075
:10426000B4EB600F01DDC0F34F04F01B00EBD07026
:10427000B4EB600F01DDC0F34F04A8EB040B09EBB6
:10428000040A1FFA8BF21FFA8AF03346394600956A
:10429000FFF7B1FF361B2744B3B21FFA8AF2B9B257
:1042A00048460095FFF7A7FFB3B2B9B21FFA8BF0EB
:1042B00042460095FFF79FFF39B20FFA8AF022B20B
:1042C0000F468146012314460095FFF70AFF0FFAB7
:1042D0008BF839460223224640460095FFF701FF3E
:1042E000761E36B240460423224631460095FFF73B
:1042F000F8FE31464846082322460095FFF7F1FEB6
:10430000DAE52DE9FF4F0746C2F1010014460FFA26
:1043100080FCC2EBC43040000FFA80F881B00E463A
:10432000081981B24FF001090025B8B2049AFFF7CD
:1043300048FC301B81B2B8B2049AFFF742FC38192E
:10434000B1B280B2049AFFF73CFC381BB1B280B224
:1043500059E0BCF1000F09DB08F102000FFA80F808
:10436000641E0CEB080024B20FFA80FC09F1020075
:104370000FFA80F96D1C0CEB09002DB20FFA80FCCE
:10438000781906EB040A00901FFA8AF180B2049AA9
:10439000FFF717FCA7EB050B1FFA8AF11FFA8BF04A
:1043A000049AFFF70EFC0098A6EB040A1FFA8AF1A4
:1043B00080B2049AFFF705FC1FFA8AF11FFA8BF00E
:1043C000049AFFF7FEFB381906EB050A00901FFA66
:1043D0008AF180B2049AFFF7F4FBA7EB040B1FFAF3
:1043E0008AF11FFA8BF0049AFFF7EBFB0098A6EB1B
:1043F000050A1FFA8AF180B2049AFFF7E2FB1FFA5E
:104400008AF11FFA8BF0049AFFF7DBFBA542A0DBD1
:1044100005B0E7E52DE9FE4F0746C2F1010014465D
:104420000FFA80F8C2EBC43040000FFA80FA0E4653
:10443000081981B299464FF0010B0025B8B21A460F
:10444000FFF7BFFB301B81B2B8B24A46FFF7B9FB9A
:1044500038190190B1B280B24A46FFF7B2FBA7EB20
:10446000040CB1B21FFA8CF04A46FFF7AAFB019880
:10447000B3B282B2CDF80090B1B21FFA8CF042E034
:10448000B8F1000F09DB0AF102000FFA80FA641E8E
:1044900008EB0A0024B20FFA80F80BF102000FFAC1
:1044A00080FB6D1C08EB0B002DB20FFA80F8781919
:1044B00082B20290781BCDE9009031198BB289B29B
:1044C00080B2FFF787FC0198311B82B202988BB251
:1044D000CDF8009089B280B2FFF77CFC381B82B225
:1044E00002903819CDE9009071198BB289B280B26F
:1044F000FFF770FC0298711B82B201988BB2CDF865
:10450000009089B280B2FFF765FCA542B8DBBDE838
:10451000FE8F0000002070472DE9F04F97B0784CD7
:104520004FF6FF7ACDF810A0207818B1012017B00F
:10453000BDE8F08F00F0A8F87248016841F0010171
:1045400001604FF002080722CDE910824FF0040B02
:10455000CDF848B0CDE91328CDF854801020CDF81F
:104560005880CDE907B040204FF00109099000259F
:10457000CDE905954FF4C070CDE90A054FF4006010
:10458000CDE90C0580000E9010A80F904E4605A8AE
:10459000FCF78EFCCDE902650827CDE90067564699
:1045A000CDF810A001E0401E049020210120FCF76E
:1045B000ACFD10B104980028F5D16846FCF732FD37
:1045C00051480490411E049101D30846FAE7CDE911
:1045D0000087CDF80890CDE90356C84601E0401E9B
:1045E000049020210120FCF790FD10B104980028D0
:1045F000F5D16846FCF716FD0320CDE900070297C8
:10460000CDE9035601E0401E049020210120FCF773
:104610007CFD10B104980028F5D16846FCF702FD36
:10462000CDE900B740F23120CDF80880CDE903068E
:10463000474601E0401E049020210120FCF765FD63
:1046400010B104980028F5D16846FCF7EBFC4FF454
:104650002A70FCF705FD049601E0401E049020211D
:104660000120FCF752FD10B104980028F5D14FF05D
:104670005040452100F8501F0078452802D0257091
:10468000002054E7277051E77CB5FFF743FF00286F
:1046900035D10C25032400231A4660211B48CDE99F
:1046A0000045FEF704FC00231A4601211848CDE915
:1046B0000045FEF7FCFB00231A464CF20371154837
:1046C000CDE90045FEF7F3FB00231A464FF6837150
:1046D0001148CDE90045FEF7EAFB00231A464FF6E4
:1046E0003F010E48CDE90045FEF7E1FB00231A46E5
:1046F00048F233110A48CDE90045FEF7D8FB7CBDEE
:104700005000002038380240F0FE0F010004024043
:1047100000080240000C0240001002400014024059
:104720000018024070471CB530B1032803D10521A1
:10473000FE48FFF7F7FF1CBD05210320CDE900016E
:1047400000231A464FF4E041F948FEF7B0FB1CBDC8
:104750007CB50525F74E032440B101280CD0032871
:1047600003D10521F448FFF7DDFF7CBD00231A4685
:104770004FF4607130460CE000231A464FF400619C
:104780003046CDE90045FEF792FB0023EB481A4680
:10479000C021CDE90045FEF78AFB7CBD1CB5052292
:1047A000E74C032140B101280CD0032803D1052197
:1047B000E448FFF7B7FF1CBDCDE9001200231A46FD
:1047C000642105E0CDE9001200231A464FF4E041D0
:1047D0002046FEF76CFB1CBD1CB50622032140B130
:1047E00001280DD0032803D10621D748FFF79AFFEF
:1047F0001CBDCDE9001200231A463821D34806E03B
:10480000CDE9001200231A464FF4E051D048FEF7DC
:104810004EFB1CBD7CB50525CC4E032450B10128B0
:1048200016D002281AD0032803D10521C948FFF762
:1048300079FF7CBD00231A464FF480613046CDE9F4
:104840000045FEF734FB00231A460C21C04809E05E
:1048500000231A464FF46041304603E00023BE486F
:104860001A460D21CDE90045FEF721FB7CBD1CB5A4
:104870000522032140B101280DD0032803D10521D1
:10488000B648FFF74FFF1CBDCDE9001200231A46C2
:10489000E021B34805E0CDE9001200231A46382193
:1048A000AA48FEF704FB1CBD2DE9FF4F85B0044666
:1048B000DDE912BA994616466846FDF708FFA74893
:1048C000A84F0025844208D1386840F480503860F1
:1048D0000698FFF7CCFFADF804509E48DFF88482BD
:1048E0008442A8F104080AD1D8F8001041F48041AC
:1048F000C8F800100698FFF78DFFADF804509248F5
:1049000084420AD1D8F8001041F40041C8F80010E0
:104910000698FFF761FFADF804508A48844208D139
:10492000386840F4005038600698FFF737FFADF85C
:1049300004508148844208D1386840F480103860BF
:104940000698FFF705FFADF804507848844208D177
:10495000386840F4001038600698FFF7E4FEADF8C0
:104960000450ADF80C90ADF800504FF40070ADF865
:104970000EA0ADF802B0ADF80A0046B10121012E3B
:1049800008D00220022E08D0032E0BD00EE0ADF886
:10499000065004E0ADF8065006E0ADF80600ADF8AC
:1049A000085003E0ADF80600ADF80810208820F0AC
:1049B0004000208069462046FDF70AFE208840F02E
:1049C0004000208009B0BDE8F08F2DE9FC4104468D
:1049D000624800250F464FF48276844205D1CDE926
:1049E000006520230022FFF75FFF5A48844206D16A
:1049F000CDE90065202300223946FFF755FF5248D4
:104A0000844206D1CDE90065202300223946FFF714
:104A10004BFF4C48844206D1CDE90065202300229B
:104A20003946FFF741FF4448844206D1CDE900658D
:104A3000202300223946FFF737FF3C48844206D145
:104A4000CDE90065202300223946FFF72DFFBDE8A0
:104A5000FC812DE9FC410446404800251746884664
:104A60004FF48276844204D1CDE900652023FFF71C
:104A70001BFF3848844206D1CDE9006520233A4621
:104A80004146FFF711FF3048844206D1CDE9006569
:104A900020233A464146FFF707FF2A48844206D1C1
:104AA000CDE9006520233A464146FFF7FDFE224846
:104AB000844206D1CDE9006520233A464146FFF7FE
:104AC000F3FE1A488442C2D1CDE9006520233A465C
:104AD0004146FFF7E9FEBAE72DE9FC470446DDE968
:104AE0000A651E481F4690468946844205D1CDE995
:104AF000006513463A46FFF7D7FE1648844206D1B2
:104B0000CDE9006543463A464946FFF7CDFE0E48DB
:104B1000844206D1CDE9006543463A464946FFF74F
:104B2000C3FE0848844225D143461DE0005401409D
:104B3000001802400014024000500140001C0240D6
:104B40000010024000340140003C004000040240DC
:104B500000080240003800400020024000300140C0
:104B60000000024044380240CDE900653A4649461B
:104B7000FFF79AFE7748844206D1CDE900654346A7
:104B80003A464946FFF790FE7348844206D1CDE984
:104B9000006543463A464946FFF786FEBDE8FC8776
:104BA0007FB50D00044620D06846FBF749FC6B48F2
:104BB000844208D06A48844205D06648844202D0C4
:104BC0006548844201D1039900E002990020012444
:104BD000421C04FA02F3B1FBF3F3AB4202D8C0006B
:104BE00004B070BDD0B20828F2D33820F8E70288AC
:104BF0000388C2F3C02223F0400303800129018807
:104C000008D021F400610180018841F04001018059
:104C10001046704741F40061F5E730B5048864063A
:104C200014D50489A407FCD004892406F9D40024EF
:104C30000AE00D5D85810589AD07FCD005892D064B
:104C4000F9D485891555641C9C42F2D330BD10B54A
:104C500003885B0613D503899B07FCD003891B06D9
:104C6000F9D4002309E0CC5C84810489A407FCD03A
:104C700004892406F9D484895B1C9342F3D310BDC4
:104C800030B50488640613D50489A407FCD00489D0
:104C90002406F9D4002409E082810589AD07FCD0FF
:104CA00005892D06F9D485890D55641C9C42F3D3E2
:104CB00030BD30B50488640616D50489A407FCD03D
:104CC00004892406F9D400240CE031F814508581BD
:104CD0000589AD07FCD005892D06F9D4858922F810
:104CE0001450641C9C42F0D330BD10B503885B06A1
:104CF00014D503899B07FCD003891B06F9D4002334
:104D00000AE031F8134084810489A407FCD00489A7
:104D10002406F9D484895B1C9342F2D310BD30B5CC
:104D20000488640614D50489A407FCD004892406E9
:104D3000F9D400240AE082810589AD07FCD00589F9
:104D40002D06F9D4858921F81450641C9C42F2D3B5
:104D500030BD0000005001400054014000300140CF
:104D60000034014002468221C348FEF748BB1CB50F
:104D7000FDF766FFC04CC14A00212046FEF7F9F955
:104D80000223032282212046FEF7B2FB052000F019
:104D90005CF90023032282212046FEF7A9FB0220B2
:104DA00000F053F90221009101AB0022822120463C
:104DB000FEF75AFBBDF8040041BAA1F50062113AB2
:104DC00001D003201CBD0223032282212046FEF7CE
:104DD0008FFB052000F039F90023032282212046B1
:104DE000FEF786FB022000F030F90420FFF7BAFF3F
:104DF00020F00103042282212046FEF779FB0420E3
:104E0000FFF7B0FF20F00203042282212046FEF7C4
:104E10006FFB4923202282212046FEF769FB0220F6
:104E200000F013F90123212282212046FEF760FBC6
:104E30001720FFF797FF40F01E031722822120461C
:104E4000FEF756FB9A23412282212046FEF750FBB3
:104E500001234A2282212046FEF74AFB01234B22EE
:104E600082212046FEF744FB00234B22822120466C
:104E7000FEF73EFB0123562282212046FEF738FB37
:104E80000123582282212046FEF732FB03234022D1
:104E900082212046FEF72CFBFF230B228221204695
:104EA000FEF726FB022000F0D0F802201CBD70B5F2
:104EB00004464F20FFF756FF60F30F255020FFF701
:104EC00051FF60F30705A5F5B47528B20B2190FBDF
:104ED000F1F001B2002901DC002104E0B1F5A07F6E
:104EE00001DB40F23F11A14201DD081B00E0601A26
:104EF00000B2042801DD88B270BD204670BD70B5D7
:104F000004464D20FFF72EFF60F30F254E20FFF7DC
:104F100029FF60F3070529B240F6B830814202DC70
:104F2000A1F63C7101E0A1F6D861484200B20F2120
:104F300090FBF1F001B2EF2901DDEF2102E0002941
:104F400000DA0021A14201DD081B00E0601A00B276
:104F5000042801DD88B270BD204670BD70B50446DE
:104F6000007960714020FFF7FDFE434E00064FF0D0
:104F700001050DD4257101234B2282213046FEF715
:104F8000B7FA00234B2282213046FEF7B1FA5AE0ED
:104F9000A07930B1012811D0022818D0032821D0DF
:104FA0002AE02088FFF7ABFFC0F1EF002080608887
:104FB000FFF77DFFA0F23F10404206E02088FFF798
:104FC0009EFF20806088FFF772FF608014E0608899
:104FD000FFF795FF60802088FFF769FFA0F23F1080
:104FE000404208E02088FFF78AFFC0F1EF006080B0
:104FF0002088FFF75CFF208001234B22822130466E
:10500000FEF776FA00234B2282213046FEF770FA33
:10501000A07900214FF49F7260B101280AD0208846
:10502000401E90420ED2608860B1EF280AD22171F2
:10503000002070BD2088401EEE2803D2608808B191
:105040009042F4D92571012070BD0D4908B50A6858
:105050000092EFF3058242B14FF0E021002809D021
:105060000A69D203FAD5401EF8E70A68009BD21AF3
:105070008242FAD308BD0000005C0040A086010017
:10508000140000204FF4C8310E4804F029BE0E4829
:10509000006870470C4908B50A680092EFF3058272
:1050A00042B14FF0E021002809D00A69D203FAD5B5
:1050B000401EF8E70A68009BD21A8242FAD308BD64
:1050C00070477047E003002014000020F0B5FA4C50
:1050D0000125059E2560F94C4FF481372760E0607B
:1050E000E163002020612064E261636305EB064018
:1050F0006064206840F0010020602068C007FCD197
:10510000F0BD70B5EC4C01234FF07F45236008C81B
:1051100003F47F44DEB244EA0644C3F30746344353
:1051200025EA03031C4310C1521EF0D170BD38B5EF
:105130000024009400F01DFD38BD38B50D46002454
:1051400001462846009400F026FD38BD38B50024FD
:10515000009400F00EFD38BD38B50D460024014620
:105160002846009400F017FD38BD38B5022400949D
:1051700000F0FFFC38BD38B50D4602240146284634
:10518000009400F008FD38BD38B50324009400F009
:10519000F0FC38BD38B50D4603240146284600947E
:1051A00000F0F9FC38BD38B50424009400F0E1FCAF
:1051B00038BD38B50D46042401462846009400F059
:1051C000EAFC38BDBC4A0121116020B9BC48BD4988
:1051D0000068884201D100207047BB49884201D154
:1051E00001207047B949884201D102207047B8496F
:1051F000884201D103207047B649884201D104207A
:105200007047B549884201D105207047B3498842AB
:1052100001D106207047B249884201D1072070476A
:10522000FEE71EB5A44C01232360FF23B3EB116FEF
:1052300028D080F07F40009081F07F4001909F480F
:10524000A8490160C0F80CD001A9416102A9C1635D
:105250004FF4803141EA0261C161C2F1FF010906E8
:105260004162002141634FF001114164016841F046
:105270000101016000E030BF0168C907FBD102985D
:1052800080F07F401EBD2DE9F0418B4E0125044684
:105290003560C8880F46082808D12521104607F038
:1052A000F9F918B1F86808B1007920B12046BDE8D5
:1052B000F04107F066BA8C492268A068FFF721FF29
:1052C0007E482178884A3560C262491EC9B205EB22
:1052D0000121C161C16941F02001C1611046BDE8F1
:1052E000F08170B51C46034673480E4601210160EB
:1052F000154622467D49184600F061FC22467C494D
:10530000304600F05CFC2346774A7949774800F044
:1053100061FC22462946BDE87040734800F04FBC4E
:105320002DE9FF5FDFF890B14FF0010A109C16469F
:105330000F4680460025CBF800A040E022466B498E
:10534000404600F03CFC22466949384600F037FCF4
:105350005A481299654B664ADFF88C91DFF884C190
:10536000CBF800A0C0F800C0C3604261C0F83C9018
:105370004FF4803242EA0162C261C1F1FF010906C5
:105380004162002141630AEB04414164016841F03C
:10539000010101600168C907FCD12246314652482B
:1053A00000F00DFC039821180E9808EB81082044AA
:1053B00007EB80070F986D1C204406EB80061198C0
:1053C0008542BBD3BDE8FF9F2DE9F0410E463A4927
:1053D0000446012008601546204607F0C3F9074639
:1053E000204607F0CBF936492B1D383105EB000C70
:1053F00051F8240006F11E023744456805F4704553
:1054000045601D3742EA074051F82420506051F8AA
:105410002400826802F47042826051F824100CF17A
:10542000030C43EA0C408860BDE8F0410220FCF721
:105430003CB9F0B4204C0123214E23600B061C0A1A
:105440003836C1F30723C1F3074556F820100F6C17
:1054500000270F6444EA032456F820002C4344EA52
:1054600002640464F0BC0120FCF71FB92DE9F04789
:105470000E4608A9154691E880030F4A01211C46F3
:105480001160FFF79FFE0D494FF400720A60CE6075
:10549000CD63C1F81080C1F84090C861384664F30C
:1054A0001F404864086840F0010008600868C007B1
:1054B000FCD1BDE8F08700002800002000B00240C9
:1054C000540000203C5201085C520108245201089B
:1054D000F45101080C520108C4510108AC510108F3
:1054E000DC51010800020200E0930120E0A201204B
:1054F000E0B101202DE9F04391B004464021684617
:1055000003F089FDDFF800940126022CC9F8006041
:105510007ED2FE4D286AC8B9012108462E62FCF7EA
:105520002FFA0021582000F014FB582000F006FB51
:1055300001214802FBF71CFA00215A2000F009FB68
:105540005A2000F0FBFAF24902208860204607F05A
:1055500009F96860204607F011F91E21A860009142
:105560006968C01C1D3101910421CDE9021020465B
:10557000FFF728FEA8610490FF204FF00008CDE956
:105580000508CDF81C80CDF82080CDF824806F6808
:105590002046C9F8006007F069F87843C01DC117BC
:1055A00000EB5170C0104FF4C061E8600A91072110
:1055B0000B91C11CCDE90D10A8680F90D548D34EB2
:1055C000694650F8240038360C9056F82400FCF751
:1055D00070F8204607F04AF82861082805DC56F8DC
:1055E0002400012100F014FB1DE0C848CA4950F80E
:1055F0002400884217D156F82400012100F008FB4E
:10560000C64F4046C5F8148079688847E86100E0D5
:1056100011E0014620466A69FFF70BFF6869401CEC
:105620006861FF28F0DD56F824000121FCF7A2F89C
:105630000120FCF73AF811B0BDE8F083FEB50E4644
:10564000B1490446012008601546204600F0EDFAF5
:10565000B049AE4B51F82420303300FB062100FB4B
:105660000522002053F82430CDE900300290A748ED
:105670002C3050F824302046FFF7F8FEFEBD2DE90F
:10568000FE4F0F46DDE90C959F4904460120DDF8E9
:1056900038A008601E469046204600F0C6FA9D4994
:1056A00051F824209949283151F8241000FB012297
:1056B000964896492C30343150F8240051F8243063
:1056C00008FB007709FB006607FB032106FB0322AA
:1056D0000026401BCDF800A0CDE901062B46204650
:1056E000FFF7C4FEBDE8FE8F2DE9F05FDFF818A2DA
:1056F000DDE90A6B4FF001091D4690460F4604464E
:10570000CAF8009004F0DAFF012832D0ED1BA6EBB6
:10571000080620466D1C761C00F087FA7B4A7D49FE
:10572000283251F8241052F8242000FB0212774846
:105730002C3050F82410083008FB017350F8240076
:10574000D84603FB002720464C1BCAF80090FFF701
:1057500039FD6F49724A0A60C1F83880CF630C6422
:10576000486365F31F464E64086840F00100086016
:1057700012E000221921204607F016FA33462A4685
:105780004146384606F046FF2046BDE8F05F654AD0
:10579000192107F009BA30BF0868C007FBD1BDE87E
:1057A000F09F2DE9FE430F46DDE90A5856490446AD
:1057B0000120086099461646204600F036FA534A02
:1057C00054492832514B51F8241052F824203433D4
:1057D00000FB02114D4853F824302C3050F82400BF
:1057E000CDF8008006FB007202FB0312C5F1F00148
:1057F000401BCDE901102B4649462046FFF736FEF7
:10580000BDE8FE832DE9F05F0E460AA9994691E8AE
:10581000100C1546074600F008FA3C4A3D4928326C
:105820003A4B51F8271052F82720343300FB02116D
:10583000364853F827302C3050F8270005FB00621B
:1058400002FB0318051BABEB04063846FFF7BAFC56
:10585000DFF8B4C00121CCF800102D494FF4813C91
:10586000C1F800C0C1F80C90C1F83C800E610D6415
:105870000522CA6148634AEA04404864086840F067
:10588000010008600868C007FCD188E720490220B1
:105890008860704770B52449012008601B4D0024C2
:1058A000243555F82400002842DB1849174A2C31CA
:1058B000303251F8241052F824205143134A343224
:1058C00052F824205043134A52F8242001FB0021AF
:1058D0000E4A383252F82400836A0023836252F859
:1058E000240081620120FBF7E0FE55F824102046D9
:1058F00005F006FB054955F82400283141F824003D
:105900004FF0FF3012E0000028000020540000207B
:1059100000B00240A4510108DC510108C451010843
:1059200000020300E95600083C68014045F82400E5
:10593000641C012CB5DB70BD2DE9FC411546C34F3D
:10594000044600260122C24B07F10C000F2971D238
:10595000DFE801F07F087F0C2329813C382D4F7F41
:105960005D711D002046FFF7C5FD74E057F8242047
:105970006968B84B5143B54A53F82430083250F89F
:10598000240052F8242001FB023181625FE0AF491C
:105990002868083941F824005DE02A792046296802
:1059A000FFF747FD57E00120FBF74BFE53E0296866
:1059B00001B1012150F82400FBF7DCFE0120FBF7C8
:1059C00074FE48E0D5E9001220460FE06A4601A9BE
:1059D000204604F08BFE9D49286847F82400091DE5
:1059E000686841F82400DDE900212046FFF7ECFC5F
:1059F00031E02D681A6050F824104A6922F0FF0245
:105A00004A6150F82400C5F1FF014161D6E750F822
:105A10002400296801B101211A600029016802D01F
:105A200041F0020101E021F0020101608A490220F7
:105A3000086010E00DE0296850F82400C1F3074227
:105A400001F47F431A43C9B242EA0141C160022016
:105A5000B5E74FF0FF363046BDE8FC812DE9F04157
:105A600000231A467D497E4804F08AFB4FF4A07457
:105A70002246F021002007F0DFF82246F021002026
:105A800007F004F90024714E651E083E714F06F1BF
:105A9000100846F8245057F82410204607F0E2F882
:105AA000204606F0E3FDC11048F824106D4A21217C
:105AB000204607F079F86C4A2321204607F074F855
:105AC0002046FFF77FFB042809D8684A19212046A1
:105AD00007F06AF8664A2521204607F065F8204657
